:100000000C9462000C948A000C948A000C948A0070
:100010000C948A000C948A000C948A000C948A0038
:100020000C948A000C948A000C948A000C948A0028
:100030000C948A000C948A000C948A000C948A0018
:100040000C947D010C948A000C94E3020C948A00B9
:100050000C948A000C948A000C948A000C948A00F8
:100060000C948A000C948A000000000024002700F1
:100070002A0000000000250028002B0000000000DE
:1000800023002600290004040404040404040202DA
:100090000202020203030303030301020408102007
:1000A0004080010204081020010204081020000012
:1000B0000007000201000003040600000000000029
:1000C0000000680411241FBECFEFD4E0DEBFCDBF17
:1000D00011E0A0E0B1E0E8ECFAE002C005900D927A
:1000E000AE30B107D9F711E0AEE0B1E001C01D922A
:1000F000AD3BB107E1F710E0C4ECD0E004C02297BB
:10010000FE010E945E05C23CD107C9F70E9476013C
:100110000C9462050C9400008AEA91E00E94190494
:10012000882311F490E008C08AEA91E00E942D042F
:1001300090E0833609F491E0892F08950E94290206
:1001400040911A01E42FFF27E7FDF095AEE0B1E002
:10015000EA0FFB1F282F2F7720834F5F242F332791
:1001600027FD3095A20FB31F880F892F881F990B89
:100170008C934F5F40931A0108950F931F93CF9371
:10018000DF93182F6091000161608AEA91E00E947C
:100190005504C0E0D0E0012F112707FD109509C0DC
:1001A000FE01E25FFE4F8AEA91E060810E94550401
:1001B0002196C017D107A4F38AEA91E0609101016A
:1001C0000E9455046091000162608AEA91E00E94F9
:1001D000550460911B016F778AEA91E00E945504F3
:1001E00060911B0170911C01660F672F661F770BD2
:1001F0008AEA91E00E9455048AEA91E06091010147
:100200000E945504DF91CF911F910F9108950F9394
:100210001F93CF93DF9310921C0110921B01C0E03B
:10022000D0E000911B0110911C019E012E5F822FD6
:100230000E9494020C2E02C0880F991F0A94E2F7C4
:10024000082B192B10931C0100931B012196CB3016
:10025000D10539F7C0E0D0E0CE010E949E00219682
:10026000C630D105C9F780911A018F5F0E94BD0089
:1002700010921A016AE070E080E090E00E94C501EF
:100280000E948C00813059F406C064E670E080E082
:1002900090E00E94C5010E948C008823B1F3DF9199
:1002A000CF911F910F9108951F938AEA91E040E04A
:1002B00051EE60E070E00E94200310921C01109249
:1002C0001B0112E0812F61E00E9447021F5F1E3078
:1002D000C9F706C064E670E080E090E00E94C501C6
:1002E0000E948C008823B1F31F9108950E94EF01B2
:1002F0000E9454010E940701FDCF1F920F920FB67A
:100300000F9211242F933F938F939F93AF93BF939B
:100310008091210190912201A0912301B0912401AB
:10032000309125010196A11DB11D232F2D5F2D3781
:1003300020F02D570196A11DB11D2093250180931A
:10034000210190932201A0932301B0932401809175
:100350001D0190911E01A0911F01B09120010196F5
:10036000A11DB11D80931D0190931E01A0931F013B
:10037000B0932001BF91AF919F918F913F912F91A9
:100380000F900FBE0F901F901895EF92FF920F9352
:100390001F937B018C018FB7F894409121015091FC
:1003A000220160912301709124018FBF2FB7F8942F
:1003B0008091210190912201A0912301B09124010B
:1003C0002FBF841B950BA60BB70BE816F9060A077F
:1003D0001B0760F71F910F91FF90EF90089578949D
:1003E00084B5826084BD84B5816084BD85B582603A
:1003F00085BD85B5816085BDEEE6F0E080818160D8
:100400008083E1E8F0E08081826080838081816088
:100410008083E0E8F0E0808181608083E1EBF0E0C0
:10042000808184608083E0EBF0E080818160808364
:10043000EAE7F0E08081846080838081826080834D
:100440008081816080838081806880831092C10078
:1004500008958F70909102019295990F990F907C59
:10046000982B90937C0080917A00806480937A002E
:1004700080917A0086FDFCCF209178004091790030
:10048000942F80E030E0282B392BC9010895482FA4
:1004900050E0CA0182559F4FFC012491CA01865643
:1004A0009F4FFC0194914A575F4FFA0134913323D7
:1004B000D1F1222331F1233021F4809180008F7714
:1004C00005C0243031F4809180008F7D80938000BE
:1004D00018C0213019F484B58F7704C0223021F47C
:1004E00084B58F7D84BD0DC0263021F48091B0008D
:1004F0008F7705C0273029F48091B0008F7D8093DD
:10050000B000E32FF0E0EE0FFF1FEE58FF4FA59174
:10051000B491662329F48C91909589238C93089546
:100520008C91892B8C930895682F70E0CB018255B4
:100530009F4FFC012491CB0186569F4FFC014491B3
:100540006A577F4FFB019491992319F420E030E022
:1005500038C0222331F1233021F4809180008F773D
:1005600005C0243031F4809180008F7D809380001D
:1005700018C0213019F484B58F7704C0223021F4DB
:1005800084B58F7D84BD0DC0263021F48091B000EC
:100590008F7705C0273029F48091B0008F7D80933C
:1005A000B000892F90E0880F991F84589F4FFC015D
:1005B000A591B4918C9120E030E0842311F021E0EA
:1005C00030E0C90108951F920F920FB60F921124C7
:1005D0002F933F934F935F936F937F938F939F934B
:1005E000AF93BF93EF93FF934091C600E091A601B4
:1005F000F091A701CF01019660E870E00E94F80435
:100600009C018091A8019091A9012817390739F020
:10061000EA5DFE4F40833093A7012093A601FF912E
:10062000EF91BF91AF919F918F917F916F915F916A
:100630004F913F912F910F900FBE0F901F901895E3
:100640005F926F927F928F929F92AF92BF92CF9262
:10065000DF92EF92FF920F931F93CF93DF93EC0102
:100660003A014B01413482E458078FE0680780E08B
:1006700078070CF07FC060E874E88EE190E0A40198
:1006800093010E942D052150304040405040CA0146
:10069000B90122E030E040E050E00E942D05590110
:1006A0006A01A6019501209530954095509594E0FA
:1006B000220F331F441F551F9A95D1F760E074E253
:1006C00084EF90E00E942D05CA01B9012FEF30E0C0
:1006D00040E050E00E94D904A40193010E942D053E
:1006E000C90181509F4F181619061CF4522E5A94B6
:1006F00003C055245394521A60E079E08DE390E0F2
:10070000A40193010E942D052150304040405040EB
:10071000CA01B90122E030E040E050E00E942D051E
:10072000209530954095509583E0220F331F441F4C
:10073000551F8A95D1F760E074E284EF90E00E9443
:100740002D05CA01B9012FEF30E040E050E00E94D2
:10075000D904A40193010E942D05C90181509F4F26
:10076000181619061CF4822F815002C081E0821BEA
:10077000851500F5E885F98581E090E00A8802C0DA
:10078000880F991F0A94E2F7808360E079E08DE397
:1007900090E0A40193010E942D052150304040407B
:1007A0005040CA01B90122E030E040E050E00E9430
:1007B0002D0504C0E885F98510829501EC81FD8145
:1007C0003083EE81FF812083EA85FB85208141E033
:1007D00050E0CA010E8402C0880F991F0A94E2F704
:1007E000282B2083EA85FB852081CA010F8402C063
:1007F000880F991F0A94E2F7282B2083EA85FB854E
:100800008081088802C0440F551F0A94E2F7842BA8
:100810008083DF91CF911F910F91FF90EF90DF9038
:10082000CF90BF90AF909F908F907F906F905F9090
:100830000895DC011296ED91FC911397E058FF4F5B
:100840008191919180589F4F20813181821B930B20
:1008500060E870E00E94F8040895CF93DF93DC0114
:100860001296ED91FC911397EF01CE57DF4F48811F
:100870005981E058FF4F80819181E058F040841702
:10088000950719F42FEF3FEF0CC0E40FF51F2081FF
:10089000CA01019660E870E00E94F8049983888399
:1008A00030E0C901DF91CF910895FC01A085B185A9
:1008B00021898C9190E0022E02C0959587950A942B
:1008C000E2F780FFF6CF0484F585E02D608308957C
:1008D00087E091E09093AB018093AA0186E291E0DA
:1008E0009093AD018093AC0185EC90E09093AF01C3
:1008F0008093AE0184EC90E09093B1018093B001BD
:1009000080EC90E09093B3018093B20181EC90E091
:100910009093B5018093B40186EC90E09093B70179
:100920008093B60184E08093B80183E08093B9019D
:1009300087E08093BA0185E08093BB0181E08093DA
:10094000BC0108950F931F93CF93DF938C01EB01AC
:1009500009C02196D801ED91FC910190F081E02D24
:10096000C801099568816623A1F7DF91CF911F9196
:100970000F910895EF92FF920F931F93CF93DF9300
:100980008C017B01EA010CC0D7016D917D01D8017A
:10099000ED91FC910190F081E02DC801099521971E
:1009A000209791F7DF91CF911F910F91FF90EF90DA
:1009B0000895629FD001739FF001829FE00DF11DA9
:1009C000649FE00DF11D929FF00D839FF00D749FC9
:1009D000F00D659FF00D9927729FB00DE11DF91F75
:1009E000639FB00DE11DF91FBD01CF0111240895D2
:1009F00097FB092E07260AD077FD04D049D006D0F0
:100A000000201AF4709561957F4F0895F6F7909540
:100A100081959F4F0895A1E21A2EAA1BBB1BFD01D1
:100A20000DC0AA1FBB1FEE1FFF1FA217B307E407CD
:100A3000F50720F0A21BB30BE40BF50B661F771F25
:100A4000881F991F1A9469F7609570958095909505
:100A50009B01AC01BD01CF01089597FB092E05262E
:100A60000ED057FD04D0D7DF0AD0001C38F45095C3
:100A70004095309521953F4F4F4F5F4F0895F6F7C2
:100A800090958095709561957F4F8F4F9F4F0895FA
:100A9000AA1BBB1B51E107C0AA1FBB1FA617B707A4
:100AA00010F0A61BB70B881F991F5A95A9F78095C0
:100AB0009095BC01CD010895EE0FFF1F0590F491B4
:080AC000E02D0994F894FFCF2A
:0E0AC80080FF01000000005504A204BA0400E3
:00000001FF
